{
  "_format": "hh-sol-artifact-1",
  "contractName": "SimpleYieldVault",
  "sourceName": "src/SimpleYieldVault.sol",
  "abi": [
    {
      "inputs": [
        {
          "internalType": "address",
          "name": "_asset",
          "type": "address"
        },
        {
          "internalType": "uint8",
          "name": "_decimals",
          "type": "uint8"
        }
      ],
      "stateMutability": "nonpayable",
      "type": "constructor"
    },
    {
      "anonymous": false,
      "inputs": [
        {
          "indexed": true,
          "internalType": "address",
          "name": "owner",
          "type": "address"
        },
        {
          "indexed": true,
          "internalType": "address",
          "name": "spender",
          "type": "address"
        },
        {
          "indexed": false,
          "internalType": "uint256",
          "name": "value",
          "type": "uint256"
        }
      ],
      "name": "Approval",
      "type": "event"
    },
    {
      "anonymous": false,
      "inputs": [
        {
          "indexed": true,
          "internalType": "address",
          "name": "caller",
          "type": "address"
        },
        {
          "indexed": true,
          "internalType": "address",
          "name": "receiver",
          "type": "address"
        },
        {
          "indexed": false,
          "internalType": "uint256",
          "name": "assets",
          "type": "uint256"
        },
        {
          "indexed": false,
          "internalType": "uint256",
          "name": "shares",
          "type": "uint256"
        }
      ],
      "name": "Deposit",
      "type": "event"
    },
    {
      "anonymous": false,
      "inputs": [
        {
          "indexed": true,
          "internalType": "address",
          "name": "caller",
          "type": "address"
        },
        {
          "indexed": true,
          "internalType": "address",
          "name": "receiver",
          "type": "address"
        },
        {
          "indexed": false,
          "internalType": "uint256",
          "name": "assets",
          "type": "uint256"
        },
        {
          "indexed": false,
          "internalType": "uint256",
          "name": "shares",
          "type": "uint256"
        }
      ],
      "name": "Redeem",
      "type": "event"
    },
    {
      "anonymous": false,
      "inputs": [
        {
          "indexed": true,
          "internalType": "address",
          "name": "from",
          "type": "address"
        },
        {
          "indexed": true,
          "internalType": "address",
          "name": "to",
          "type": "address"
        },
        {
          "indexed": false,
          "internalType": "uint256",
          "name": "value",
          "type": "uint256"
        }
      ],
      "name": "Transfer",
      "type": "event"
    },
    {
      "inputs": [
        {
          "internalType": "address",
          "name": "",
          "type": "address"
        },
        {
          "internalType": "address",
          "name": "",
          "type": "address"
        }
      ],
      "name": "allowance",
      "outputs": [
        {
          "internalType": "uint256",
          "name": "",
          "type": "uint256"
        }
      ],
      "stateMutability": "view",
      "type": "function"
    },
    {
      "inputs": [
        {
          "internalType": "address",
          "name": "spender",
          "type": "address"
        },
        {
          "internalType": "uint256",
          "name": "amount",
          "type": "uint256"
        }
      ],
      "name": "approve",
      "outputs": [
        {
          "internalType": "bool",
          "name": "",
          "type": "bool"
        }
      ],
      "stateMutability": "nonpayable",
      "type": "function"
    },
    {
      "inputs": [],
      "name": "asset",
      "outputs": [
        {
          "internalType": "address",
          "name": "",
          "type": "address"
        }
      ],
      "stateMutability": "view",
      "type": "function"
    },
    {
      "inputs": [
        {
          "internalType": "address",
          "name": "",
          "type": "address"
        }
      ],
      "name": "balanceOf",
      "outputs": [
        {
          "internalType": "uint256",
          "name": "",
          "type": "uint256"
        }
      ],
      "stateMutability": "view",
      "type": "function"
    },
    {
      "inputs": [
        {
          "internalType": "uint256",
          "name": "shares",
          "type": "uint256"
        }
      ],
      "name": "convertToAssets",
      "outputs": [
        {
          "internalType": "uint256",
          "name": "",
          "type": "uint256"
        }
      ],
      "stateMutability": "view",
      "type": "function"
    },
    {
      "inputs": [
        {
          "internalType": "uint256",
          "name": "assets",
          "type": "uint256"
        }
      ],
      "name": "convertToShares",
      "outputs": [
        {
          "internalType": "uint256",
          "name": "",
          "type": "uint256"
        }
      ],
      "stateMutability": "view",
      "type": "function"
    },
    {
      "inputs": [],
      "name": "currentPrice",
      "outputs": [
        {
          "internalType": "uint256",
          "name": "",
          "type": "uint256"
        }
      ],
      "stateMutability": "view",
      "type": "function"
    },
    {
      "inputs": [],
      "name": "decimals",
      "outputs": [
        {
          "internalType": "uint8",
          "name": "",
          "type": "uint8"
        }
      ],
      "stateMutability": "view",
      "type": "function"
    },
    {
      "inputs": [],
      "name": "deployedAt",
      "outputs": [
        {
          "internalType": "uint256",
          "name": "",
          "type": "uint256"
        }
      ],
      "stateMutability": "view",
      "type": "function"
    },
    {
      "inputs": [
        {
          "internalType": "uint256",
          "name": "assets",
          "type": "uint256"
        },
        {
          "internalType": "address",
          "name": "receiver",
          "type": "address"
        }
      ],
      "name": "deposit",
      "outputs": [
        {
          "internalType": "uint256",
          "name": "shares",
          "type": "uint256"
        }
      ],
      "stateMutability": "nonpayable",
      "type": "function"
    },
    {
      "inputs": [],
      "name": "latestAnswer",
      "outputs": [
        {
          "internalType": "int256",
          "name": "",
          "type": "int256"
        }
      ],
      "stateMutability": "view",
      "type": "function"
    },
    {
      "inputs": [
        {
          "internalType": "address",
          "name": "",
          "type": "address"
        }
      ],
      "name": "maxDeposit",
      "outputs": [
        {
          "internalType": "uint256",
          "name": "",
          "type": "uint256"
        }
      ],
      "stateMutability": "pure",
      "type": "function"
    },
    {
      "inputs": [],
      "name": "name",
      "outputs": [
        {
          "internalType": "string",
          "name": "",
          "type": "string"
        }
      ],
      "stateMutability": "view",
      "type": "function"
    },
    {
      "inputs": [
        {
          "internalType": "uint256",
          "name": "assets",
          "type": "uint256"
        }
      ],
      "name": "previewDeposit",
      "outputs": [
        {
          "internalType": "uint256",
          "name": "",
          "type": "uint256"
        }
      ],
      "stateMutability": "view",
      "type": "function"
    },
    {
      "inputs": [
        {
          "internalType": "uint256",
          "name": "shares",
          "type": "uint256"
        }
      ],
      "name": "previewRedeem",
      "outputs": [
        {
          "internalType": "uint256",
          "name": "",
          "type": "uint256"
        }
      ],
      "stateMutability": "view",
      "type": "function"
    },
    {
      "inputs": [
        {
          "internalType": "uint256",
          "name": "shares",
          "type": "uint256"
        },
        {
          "internalType": "address",
          "name": "receiver",
          "type": "address"
        },
        {
          "internalType": "address",
          "name": "owner",
          "type": "address"
        }
      ],
      "name": "redeem",
      "outputs": [
        {
          "internalType": "uint256",
          "name": "assets",
          "type": "uint256"
        }
      ],
      "stateMutability": "nonpayable",
      "type": "function"
    },
    {
      "inputs": [],
      "name": "symbol",
      "outputs": [
        {
          "internalType": "string",
          "name": "",
          "type": "string"
        }
      ],
      "stateMutability": "view",
      "type": "function"
    },
    {
      "inputs": [],
      "name": "totalSupply",
      "outputs": [
        {
          "internalType": "uint256",
          "name": "",
          "type": "uint256"
        }
      ],
      "stateMutability": "view",
      "type": "function"
    },
    {
      "inputs": [
        {
          "internalType": "address",
          "name": "to",
          "type": "address"
        },
        {
          "internalType": "uint256",
          "name": "amount",
          "type": "uint256"
        }
      ],
      "name": "transfer",
      "outputs": [
        {
          "internalType": "bool",
          "name": "",
          "type": "bool"
        }
      ],
      "stateMutability": "nonpayable",
      "type": "function"
    },
    {
      "inputs": [
        {
          "internalType": "address",
          "name": "from",
          "type": "address"
        },
        {
          "internalType": "address",
          "name": "to",
          "type": "address"
        },
        {
          "internalType": "uint256",
          "name": "amount",
          "type": "uint256"
        }
      ],
      "name": "transferFrom",
      "outputs": [
        {
          "internalType": "bool",
          "name": "",
          "type": "bool"
        }
      ],
      "stateMutability": "nonpayable",
      "type": "function"
    }
  ],
  "bytecode": "0x610100604052600e60c09081526d415243205969656c64205553444360901b60e0526000906200003090826200015e565b50604080518082019091526005815264795553444360d81b60208201526001906200005c90826200015e565b503480156200006a57600080fd5b5060405162001111380380620011118339810160408190526200008d916200022a565b6001600160a01b03919091166080526002805460ff191660ff9092169190911790554260a05262000279565b634e487b7160e01b600052604160045260246000fd5b600181811c90821680620000e457607f821691505b6020821081036200010557634e487b7160e01b600052602260045260246000fd5b50919050565b601f8211156200015957600081815260208120601f850160051c81016020861015620001345750805b601f850160051c820191505b81811015620001555782815560010162000140565b5050505b505050565b81516001600160401b038111156200017a576200017a620000b9565b62000192816200018b8454620000cf565b846200010b565b602080601f831160018114620001ca5760008415620001b15750858301515b600019600386901b1c1916600185901b17855562000155565b600085815260208120601f198616915b82811015620001fb57888601518255948401946001909101908401620001da565b50858210156200021a5787850151600019600388901b60f8161c191681555b5050505050600190811b01905550565b600080604083850312156200023e57600080fd5b82516001600160a01b03811681146200025657600080fd5b602084015190925060ff811681146200026e57600080fd5b809150509250929050565b60805160a051610e5d620002b4600039600081816102e901526105f00152600081816101d30152818161055e015261076c0152610e5d6000f3fe608060405234801561001057600080fd5b506004361061012c5760003560e01c80636e553f65116100ad578063ba08765211610071578063ba08765214610293578063c6e6f592146102a6578063dd62ed3e146102b9578063eae4c19f146102e4578063ef8b30f71461030b57600080fd5b80636e553f651461023d57806370a082311461025057806395d89b41146102705780639d1b464a14610278578063a9059cbb1461028057600080fd5b8063313ce567116100f4578063313ce567146101af57806338d52e0f146101ce578063402d267d1461020d5780634cdad5061461022257806350d25bcd1461023557600080fd5b806306fdde031461013157806307a2d13a1461014f578063095ea7b31461017057806318160ddd1461019357806323b872dd1461019c575b600080fd5b61013961031e565b6040516101469190610bb8565b60405180910390f35b61016261015d366004610beb565b6103ac565b604051908152602001610146565b61018361017e366004610c20565b6103d4565b6040519015158152602001610146565b61016260035481565b6101836101aa366004610c4a565b610440565b6002546101bc9060ff1681565b60405160ff9091168152602001610146565b6101f57f000000000000000000000000000000000000000000000000000000000000000081565b6040516001600160a01b039091168152602001610146565b61016261021b366004610c86565b5060001990565b610162610230366004610beb565b6104b2565b6101626104bd565b61016261024b366004610ca8565b6104cc565b61016261025e366004610c86565b60046020526000908152604090205481565b6101396105db565b6101626105e8565b61018361028e366004610c20565b610651565b6101626102a1366004610cd4565b610667565b6101626102b4366004610beb565b6107df565b6101626102c7366004610d10565b600560209081526000928352604080842090915290825290205481565b6101627f000000000000000000000000000000000000000000000000000000000000000081565b610162610319366004610beb565b6107f6565b6000805461032b90610d3a565b80601f016020809104026020016040519081016040528092919081815260200182805461035790610d3a565b80156103a45780601f10610379576101008083540402835291602001916103a4565b820191906000526020600020905b81548152906001019060200180831161038757829003601f168201915b505050505081565b6000620f42406103ba6105e8565b6103c49084610d8a565b6103ce9190610da1565b92915050565b3360008181526005602090815260408083206001600160a01b038716808552925280832085905551919290917f8c5be1e5ebec7d5bd14f71427d1e84f3dd0314c0f7b2291e5b200ac8c7c3b9259061042f9086815260200190565b60405180910390a350600192915050565b6001600160a01b0383166000908152600560209081526040808320338452909152812054600019811461049c576104778382610dc3565b6001600160a01b03861660009081526005602090815260408083203384529091529020555b6104a7858585610801565b506001949350505050565b60006103ce826103ac565b60006104c76105e8565b905090565b60008083116105105760405162461bcd60e51b815260206004820152600b60248201526a5a65726f2061737365747360a81b60448201526064015b60405180910390fd5b610519836107df565b9050600081116105595760405162461bcd60e51b815260206004820152600b60248201526a5a65726f2073686172657360a81b6044820152606401610507565b6105857f0000000000000000000000000000000000000000000000000000000000000000333086610891565b61058f82826109a9565b60408051848152602081018390526001600160a01b0384169133917fdcbc1c05240f31ff3ad067ef1ee35ce4997762752e3a095284754544f4c709d7910160405180910390a392915050565b6001805461032b90610d3a565b6000806106157f000000000000000000000000000000000000000000000000000000000000000042610dc3565b905063bbf81e0061062982620f4240610d8a565b610634906005610d8a565b61063e9190610da1565b61064b90620f4240610dd6565b91505090565b600061065e338484610801565b50600192915050565b60008084116106a65760405162461bcd60e51b815260206004820152600b60248201526a5a65726f2073686172657360a81b6044820152606401610507565b6106af846103ac565b9050600081116106ef5760405162461bcd60e51b815260206004820152600b60248201526a5a65726f2061737365747360a81b6044820152606401610507565b336001600160a01b0383161461075d576001600160a01b0382166000908152600560209081526040808320338452909152902054600019811461075b576107368582610dc3565b6001600160a01b03841660009081526005602090815260408083203384529091529020555b505b6107678285610a15565b6107927f00000000000000000000000000000000000000000000000000000000000000008483610a89565b60408051828152602081018690526001600160a01b0385169133917f3f693fff038bb8a046aa76d9516190ac7444f7d69cf952c4cbdc086fdef2d6fc910160405180910390a39392505050565b60006107e96105e8565b6103c483620f4240610d8a565b60006103ce826107df565b6001600160a01b03831660009081526004602052604081208054839290610829908490610dc3565b90915550506001600160a01b03808316600081815260046020526040908190208054850190555190918516907fddf252ad1be2c89b69c2b068fc378daa952ba7f163c4a11628f55a4df523b3ef906108849085815260200190565b60405180910390a3505050565b6040516001600160a01b038481166024830152838116604483015260648201839052600091829187169060840160408051601f198184030181529181526020820180516001600160e01b03166323b872dd60e01b179052516108f39190610de9565b6000604051808303816000865af19150503d8060008114610930576040519150601f19603f3d011682016040523d82523d6000602084013e610935565b606091505b509150915081801561095f57508051158061095f57508080602001905181019061095f9190610e05565b6109a15760405162461bcd60e51b8152602060048201526013602482015272151c985b9cd9995c919c9bdb4819985a5b1959606a1b6044820152606401610507565b505050505050565b80600360008282546109bb9190610dd6565b90915550506001600160a01b0382166000818152600460209081526040808320805486019055518481527fddf252ad1be2c89b69c2b068fc378daa952ba7f163c4a11628f55a4df523b3ef91015b60405180910390a35050565b6001600160a01b03821660009081526004602052604081208054839290610a3d908490610dc3565b90915550506003805482900390556040518181526000906001600160a01b038416907fddf252ad1be2c89b69c2b068fc378daa952ba7f163c4a11628f55a4df523b3ef90602001610a09565b6040516001600160a01b03838116602483015260448201839052600091829186169060640160408051601f198184030181529181526020820180516001600160e01b031663a9059cbb60e01b17905251610ae39190610de9565b6000604051808303816000865af19150503d8060008114610b20576040519150601f19603f3d011682016040523d82523d6000602084013e610b25565b606091505b5091509150818015610b4f575080511580610b4f575080806020019051810190610b4f9190610e05565b610b8d5760405162461bcd60e51b815260206004820152600f60248201526e151c985b9cd9995c8819985a5b1959608a1b6044820152606401610507565b5050505050565b60005b83811015610baf578181015183820152602001610b97565b50506000910152565b6020815260008251806020840152610bd7816040850160208701610b94565b601f01601f19169190910160400192915050565b600060208284031215610bfd57600080fd5b5035919050565b80356001600160a01b0381168114610c1b57600080fd5b919050565b60008060408385031215610c3357600080fd5b610c3c83610c04565b946020939093013593505050565b600080600060608486031215610c5f57600080fd5b610c6884610c04565b9250610c7660208501610c04565b9150604084013590509250925092565b600060208284031215610c9857600080fd5b610ca182610c04565b9392505050565b60008060408385031215610cbb57600080fd5b82359150610ccb60208401610c04565b90509250929050565b600080600060608486031215610ce957600080fd5b83359250610cf960208501610c04565b9150610d0760408501610c04565b90509250925092565b60008060408385031215610d2357600080fd5b610d2c83610c04565b9150610ccb60208401610c04565b600181811c90821680610d4e57607f821691505b602082108103610d6e57634e487b7160e01b600052602260045260246000fd5b50919050565b634e487b7160e01b600052601160045260246000fd5b80820281158282048414176103ce576103ce610d74565b600082610dbe57634e487b7160e01b600052601260045260246000fd5b500490565b818103818111156103ce576103ce610d74565b808201808211156103ce576103ce610d74565b60008251610dfb818460208701610b94565b9190910192915050565b600060208284031215610e1757600080fd5b81518015158114610ca157600080fdfea2646970667358221220106577fdd5dfe6b38e8bb1914b8ecf76e013026932ebaac6f64cbd08ed02868c64736f6c63430008140033",
  "linkReferences": {},
  "deployedLinkReferences": {}
}